:020000020000FC
:100000000FEF0DBF18E01EBF00E80093610004E091
:10001000009361000E945A000FE007B908E105B99A
:1000200000E204B90FE70AB9552744276627772766
:1000300020E030E00E94540005B301FF10C0A99AEF
:1000400043954A3061F4442753955F7058B953176C
:1000500031F4552758B905B110E2012705B903B1AC
:1000600003FF04C013B114FF09C0E6CF04E60A95EC
:10007000F1F71B9BFBCF0E944D00DECF14E61A95D3
:10008000F1F71C9BFBCF0E944600D6CF3A950AF4AD
:100090003FE0232F0E94540008953395303109F436
:1000A00030E0232F0E945400F0E0E6ECE20F0491D0
:1000B0000BB9089500E006BD02E607BD02E004BDED
:1000C00005E005BD08957E306D79335B5F707F7B01
:0600D000771F4E3D4F4773
:00000001FF
